:1000000078407630087631087632087633087634D0
:10001000087635087636087637087638087639084F
:1000200076300876310876320876330876340876EA
:100030003575800075900075A0FF75B0007438119B
:10004000A111B9740E11A111B9740111A111B974E2
:100050008011A111B9115D116E117F1190783F755A
:1000600080FEE5A0B4FF01221308504080FA7843D7
:100070007580FDE5A0B4FF01221308502F80FA78A7
:10008000477580FBE5A0B4FF01221308501E80FADB
:10009000784B7580F7E5A0B4FF01221308500D805E
:1000A000FAC2B3F590D2B211B9C2B222D2B3F5906E
:1000B000D2B211B9C2B011B9227BC87AFADAFEDB2A
:0300C000FA220021
:00000001FF
